:020000040800F2
:1000000068080020F9020008995700089555000873
:1000100095570008E5120008296200080B03000844
:10002000000000000000000000000000815A0008ED
:10003000E9120008000000009D570008855A0008DA
:100040001503000815030008150300081503000830
:100050001503000815030008150300081503000820
:100060001503000815030008150300081503000810
:100070001503000815030008150300081503000800
:1000800015030008150300081503000815030008F0
:1000900015030008150300081503000815030008E0
:1000A00015030008150300081503000815030008D0
:1000B00000000000F91200081503000815030008ED
:1000C00015030008150300081503000815030008B0
:1000D00015030008150300081503000815030008A0
:1000E0001503000815030008150300081503000890
:1000F0001503000815030008150300081503000880
:10010000150300081503000815030008150300086F
:10011000150300081503000815030008150300085F
:10012000150300081503000815030008915900087D
:10013000150300081503000815030008150300083F
:10014000150300081503000815030008150300082F
:10015000150300081503000815030008150300081F
:10016000150300081503000815030008150300080F
:1001700015030008150300081503000815030008FF
:1001800015030008150300081503000815030008EF
:1001900015030008150300081503000815030008DF
:1001A00015030008150300081503000815030008CF
:1001B00015030008000000001503000815030008DF
:1001C00015030008000000001503000815030008CF
:1001D000150300081503000815030008150300089F
:1001E000150300081503000815030008150300088F
:1001F00000000000000000001503000815030008BF
:10020000150300081503000815030008150300086E
:10021000150300081503000815030008150300085E
:10022000150300081503000815030008150300084E
:10023000150300081503000800F002F800F04CF860
:100240000AA090E8000C82448344AAF10107DA4531
:1002500001D100F041F8AFF2090EBAE80F0013F037
:10026000010F18BFFB1A43F001031847D06A0000C2
:10027000F06A0000103A24BF78C878C1FAD8520753
:1002800024BF30C830C144BF04680C607047000010
:100290000023002400250026103A28BF78C1FBD88F
:1002A000520728BF30C148BF0B607047662906F06F
:1002B0004E84782900F0F080002070471FB506F0CA
:1002C00039FC00F06BFC04000020002106F01CFC4F
:1002D000E0601FBD10B510BD00F07CFD1146FFF7BA
:1002E000EDFF05F0B7FF00F09AFD03B4FFF7F2FF52
:1002F00003BC05F09BFF00000A4880470A480047FE
:10030000FEE7FEE7FEE7FEE7FEE7FEE7FEE7FEE7C5
:10031000FEE7FEE7FEE7000004480549054A064BF4
:1003200070470000895A000839020008680200205E
:10033000680800206804002068040020704753EA21
:10034000020C00F069802DE9F04B4FF00006002B05
:100350001FBFB3FA83F503FA05F424FA05F65E40ED
:1003600012BF1643B2FA82F502FA05F4C5F1200570
:100370001EBF22FA05FC44EA0C04203556EA044C60
:100380004FEA144418BF641C4FF000084FF00009F6
:10039000904271EB030C39D3002919BFB1FA81F7F0
:1003A00001FA07F6B0FA80F700FA07F6C7F120075E
:1003B0001EBF20FA07FC46EA0C062037B6FBF4FC09
:1003C000A7EB0507103F07F01F0BCBF120062CFA17
:1003D00006F60CFA0BFB44BFB3460026202FA4BF41
:1003E0005E464FF0000B5BEA060C08BF4FF0010BB6
:1003F00019EB0B0948EB0608ABFB027C06FB02CCB1
:100400000BFB03CCC01B71EB0C01C1E70B46024692
:1004100041464846BDE8F08B13B5084318BF4FF07E
:10042000FF300146AFF30080BDE81C40704700007C
:100430000FB4044910B503AA029800F09DFB10BC4C
:100440005DF814FB7000002070B5044685690068F3
:10045000C10601D5302600E02026C00707D070BDB8
:10046000D4E9012130469047206A401C20626D1E6D
:10047000F6D570BD70B5044685690078C00707D110
:1004800070BDD4E9012120209047206A401C2062E1
:100490006D1EF6D570BD000070B504460D462146B0
:1004A0001068AFF300802188090502D50F4A7A440D
:1004B00002E00E4A7A440E32002104F1240305E0E2
:1004C00000F00F060009965D5E54491C0028F7D124
:1004D00020780023000704D5702D02D009B1022333
:1004E00011322046BDE8704000F0DFB8A066000081
:1004F0002DE9F05F894604464FF0000ADFF824B189
:10050000FB44C0F820A02046E168884700287DD041
:10051000252806D0D4E901219047206A401C20629A
:10052000F1E700255F462046E16888472028064617
:1005300007DB312E05D2B81910F8200C08B105439D
:10054000F1E7A80701D525F00405C4F81CA0002791
:10055000C4F818A02A2E09D0304606F0CDFA38B3D8
:1005600004EB8708303EC8F8186019E059F8041BFE
:10057000204604EB87029161E1688847012F064617
:1005800018D1E069002820DA25F020051DE0D8F810
:10059000180000EB800006EB40003038C8F8180067
:1005A0002046E1688847064606F0A6FA0028EED104
:1005B000012F0AD02E2E08D12046E16888477F1CE3
:1005C0000646022F45F02005C4DBA069002803DAA7
:1005D000404245F00105A061E80701D025F0100573
:1005E000A6B1A6F14100192802D8203645F40065CD
:1005F0004A463146204625604D46FFF757FE60B11A
:10060000012807D0ED1D25F0070000E007E000F10C
:10061000080978E705F1040975E730467AE7206AAA
:10062000BDE8F09F7666000010B5044603E005F0D3
:10063000FFFD401C09D014F8010B05490028F6D134
:10064000BDE810400A2005F0F3BD4FF0FF3010BDAB
:10065000700000204FF0000200B513469446964605
:10066000203922BFA0E80C50A0E80C50B1F12001C5
:10067000BFF4F7AF090728BFA0E80C5048BF0CC073
:100680005DF804EB890028BF40F8042B08BF7047D1
:1006900048BF20F8022B11F0804F18BF00F8012B43
:1006A000704770477047704770472DE9F0470D4617
:1006B00099469246044600F124080168880604D54C
:1006C000E06921F01001216000E00120A84201DD75
:1006D000471B00E00027A1697A1902EB0900081AFC
:1006E000A0612078C00602D42046FFF7ADFE0026A8
:1006F00008E0D4E901211AF806009047206A401C5E
:10070000761C20624E45F4DB2078C0060AD52046D0
:10071000FFF79AFE06E0D4E9012130209047206AD5
:10072000401C2062381EA7F10107F4DC07E0D4E981
:10073000012118F805009047206A401C2062281EFD
:10074000A5F10105F3DC2046FFF794FE20780006B2
:1007500002D50220BDE8F0870120FBE72DE9FF4F1D
:100760000C461E464FF0FF378BB0D2E90001DDF892
:1007700060800A908A46C1F30A5505B93D460021BA
:1007800008464FF00000BAF1000F00F4400005DA0F
:1007900000EB80004FF4400101EA50004FEA90590D
:1007A000B9F1010F00DDB9460A9850EA4A000ED0AF
:1007B00044F61050A5F2FF3545432F14B8F1000F51
:1007C0001ED07542291E1EDDC9F100021CE0B8F1E1
:1007D000010F4FF0000001D0302103E0F24305E0AB
:1007E0002154401CB042FBDB304600220021215442
:1007F0000B99C1F80880C1E900200FB0BDE8F08F67
:10080000BD1B6D1CDEE74A4600DA694206A800F00F
:1008100067FA06AB93E8070003AB83E8070050468E
:100820000A9905F089FD8DE80700A0F500501F38F2
:1008300000900398002D0ADD42F21F014A46084449
:10084000002303A90390684605F0F2FF09E0A0F534
:1008500000504A461F38002303A90390684605F05C
:10086000FCFF8DE807000004000C03D04FF0FF30C0
:10087000410800E01046B8F1000F03D000220092BA
:1008800015461EE0751E05D400F08CF93032625515
:100890006D1EF9D5B3460122084302D000227F1C09
:1008A00004E02078302801D100227F1E002A099719
:1008B00084D01DE0112D07DA00F074F93032625552
:1008C0006D1C50EA0102F5D1084302D00098C8B16E
:1008D0000EE00021681E05E0235C625C6354225434
:1008E000401E491C8142F7DBAB46A81B401E099005
:1008F000002004F80B000B98099AC0F80880C0E9A2
:10090000002B7AE711264FF0000857E72DE9F04F4A
:1009100088460446D21D22F0070191B0D1E90001BA
:10092000CDE90A0106F0D0F802460B98C00F01D0BD
:100930002D2007E02068810701D52B2002E020212F
:1009400001EAC000032A099001D0072A05DB03460B
:100950004146204600F084F90BE12078800601D55D
:10096000E06900E00620B8F1650F814606D0B8F1D5
:10097000660F18D0B8F1670F70D131E00020B9F1DF
:10098000110F009001DB112301E009F101030AAA14
:1009900001A90CA8FFF7E2FEDDE90C70002609F1C1
:1009A0000105834647E001204B4600904FF0004789
:1009B0000AAA01A90CA8FFF7D1FEDDE90DB00C9938
:1009C0005D46002610B909F101000D18B9EB0500CC
:1009D00003D4C0F1FF3609F10105A5EB09002BE0B6
:1009E000B9F1010F01DA4FF001090020B9F1110F3F
:1009F0000090484601DD112300E003460AAA01A940
:100A00000CA8FFF7ABFEDDE90C704D4600268346CF
:100A1000207800070AD4AB4500DA5D4601A8012D15
:100A200004DD411911F8011C302907D04F4502DAC5
:100A300017F1040F04DA012082460FE06D1EEEE785
:100A4000002F02DCED1B3E4403E0781CA84200DDD1
:100A50007D1CB81B00F1010A4FF000472078000709
:100A600003D4AA4501DB4FF0FF3A0021B7F1004F54
:100A70000DF143088DF8431024D002202B23002FC2
:100A800001DA7F422D230A21021EA0F1010000DCC1
:100A90005FB197FBF1FC97FBF1F201FB1C7C174661
:100AA0000CF1300C08F801CDEEE7A8F1010003705D
:100AB0002188090501D5452100E06521A0F1010843
:100AC00000F8011C09980FA9A1EB0807FF1D00B150
:100AD0000120411901EBEA70A1693844081A401E4F
:100AE000A0612078C00602D42046FFF7ADFC09982B
:100AF00028B1D4E901219047206A401C2062207867
:100B0000C00622D52046FFF79FFC1EE0002E04DB26
:100B1000B34502DD01A8805D00E03020D4E9012169
:100B20009047206A401C2062761CAAF101005FEA0F
:100B3000000A0AD100F032F8C0680168405CD4E9CC
:100B400001219047206A401C2062281EA5F1010562
:100B5000DCDC07E0D4E9012118F8010B9047206A9A
:100B6000401C2062381EA7F10107F3DC2046FFF786
:100B700081FC032011B041E6074B70B50D467B4464
:100B800000F05BF80446284600F01CF910B14FF065
:100B9000FF3070BD204670BDAF5600000048704762
:100BA0003000002030B5B0F10A0271F100034FEAC5
:100BB000900E4EEA817EB0EB0E0061EB91014FEAA0
:100BC000101E4EEA017E10EB0E0041EB11114FEAB0
:100BD000102E4EEA016E10EB0E0041EB11214FEA90
:100BE000104E4EEA014E10EB0E0041EB1141401841
:100BF00041F100014FEAD00040EA41704FEAD101D3
:100C00004FEA810444EA907410EB800544EB010440
:100C10006D1944EB0404521BA3414FF0000348BF7D
:100C20000A3200D530BD401C41F1000130BD00004A
:100C300001694A1C02610878704700B58FB0CDE9A0
:100C400001310021059105497944CDE90310114690
:100C50006846FFF74DFC0FB000BD0000E5FFFFFF49
:100C60002DE9F0411F46044603260168072A01F4D6
:100C7000006004DB08B116A505E016A503E008B185
:100C800015A500E015A521F010002060A069C01E88
:100C9000A0610FB1401EA0612046FFF7D5FB4FB108
:100CA000D4E9012138469047206A401C2062C01CCC
:100CB000206206E0206AFAE7D4E9012115F8010B69
:100CC0009047761EF8D22046FFF7D4FBBDE8F081AE
:100CD0004E414E006E616E00494E4600696E6600E0
:100CE0002DE9F047814616468AB0354878440DC84C
:100CF0008DE80D0032487844801C03AC0DC884E8B0
:100D00000D0041F69B300844372190FBF1F290FB37
:100D1000F1F5A5F1800501FB12041B3C02D56442EC
:100D2000012000E00020DFF898A080460027FA4468
:100D3000AAF1BE0A0EE0E0070AD03246684607EB89
:100D4000470101230AEB810105F087FD8DE80700CB
:100D500064107F1C002CEED1194F7F44AE3F19E088
:100D6000E80715D007EB04100DF1180A90E80E0003
:100D70008AE80E00C068F04201D198190890324606
:100D8000012306A903A805F068FD03AB83E807006B
:100D90006D10641C002DE3D14FF00103324669460B
:100DA000B8F1000F03A802D005F042FD01E005F004
:100DB00054FDC9E90001C9F808200AB0BDE8F08770
:100DC000185F0000007B00F080007047004870470B
:100DD000100000207546FFF7F9FFAE460500694692
:100DE000534620F00700854618B020B5FFF794FA67
:100DF000BDE820404FF000064FF000074FF000081C
:100E00004FF0000BAC46ACE8C009ACE8C009ACE858
:100E1000C009ACE8C00921F007018D46704710B544
:100E20000446AFF300802046BDE81040FFF75DBAEE
:100E300030B44FF0013C50F8042B51F8043BCCFA8D
:100E400052F4D51A20D1FCB950F8042B51F8043BC8
:100E5000CCFA52F4D51A17D1B4B950F8042B51F882
:100E6000043BCCFA52F4D51A0ED16CB950F8042BCD
:100E700051F8043BCCFA52F4D51A05D1002CDAD043
:100E800030BC4FF00000704729BAB1FA81F111F07F
:100E90001801D1F120008440F2D1CA40CB4012F0B9
:100EA000FF0213F0FF0330BCD01A7047B0B582B018
:100EB0000024C4F2022420464FF40041002200F036
:100EC0002DFF01208DF8060040F23C10C2F2000018
:100ED0000DF1060101220A2303F0C2FF60B940F2BE
:100EE0003C10C2F200000DF1070101220A2303F0B9
:100EF00041FE002800F04081FF208DF805002046CB
:100F00004FF40041002200F009FF03208DF8060095
:100F100040F23C10C2F200000DF1060101220A234A
:100F200003F09EFF60B940F23C10C2F200000DF1E8
:100F3000070101220A2303F01DFE002800F026818C
:100F4000FF208DF8040020464FF40041002200F0FD
:100F5000E5FE05208DF8060040F23C10C2F20000CC
:100F60000DF1060101220A2303F07AFF60B940F275
:100F70003C10C2F200000DF1070101220A2303F028
:100F8000F9FD002800F00C81FF208DF803002046B9
:100F90004FF40041002200F0C1FE07208DF806004A
:100FA00040F23C10C2F200000DF1060101220A23BA
:100FB000012503F055FF60B940F23C10C2F2000079
:100FC0000DF1070101220A2303F0D4FD002800F0EF
:100FD000F180FF208DF8020020464FF400410022EE
:100FE00000F09CFE40F23C10C2F200000DF1060140
:100FF00001220A238DF8065003F032FF60B940F257
:101000003C10C2F200000DF1070101220A2303F097
:10101000B1FD002800F0D880FF208DF805002046A3
:101020004FF40041002200F079FE03208DF8060005
:1010300040F23C10C2F200000DF1060101220A2329
:1010400003F00EFF60B940F23C10C2F200000DF157
:10105000070101220A2303F08DFD002800F0BE8065
:10106000FF208DF8040020464FF40041002200F0DC
:1010700055FE05208DF8060040F23C10C2F200003B
:101080000DF1060101220A2303F0EAFE60B940F2E5
:101090003C10C2F200000DF1070101220A2303F007
:1010A00069FD002800F0A480FF208DF80300204691
:1010B0004FF40041002200F031FE07208DF80600B9
:1010C00040F23C10C2F200000DF1060101220A2399
:1010D00003F0C6FE60B940F23C10C2F200000DF110
:1010E000070101220A2303F045FD002800F08A8051
:1010F000FF208DF802009DF80500AD2840F091809A
:101100009DF804001D2840F08C809DF80300ED2818
:1011100040F087809DF80200012840F0828046F66A
:101120002050C0F60000FFF783F952208DF8070029
:1011300020464FF40041002200F0F0FD40F23C1543
:101140005E20C2F200058DF806000DF1060128466A
:1011500001220A2303F084FE0DF107012846012233
:101160000A2303F07DFE20464FF40041012200F0E7
:10117000D5FD02B0B0BD00BF20464FF400410122B2
:1011800000F0CCFD9DF80700B7E600BF20464FF405
:101190000041012200F0C2FD9DF80700D1E600BF2A
:1011A00020464FF40041012200F0B8FD9DF80700F1
:1011B000EBE600BF20464FF40041012200F0AEFDF7
:1011C0009DF8070006E700BF20464FF400410122CA
:1011D00000F0A4FD9DF807001FE700BF20464FF474
:1011E0000041012200F09AFD9DF8070039E700BF99
:1011F00020464FF40041012200F090FD9DF80700C9
:1012000053E700BF20464FF40041012200F086FD65
:101210009DF807008DF802009DF80500AD283FF409
:101220006FAF9DF805100BA0FFF702F99DF80410B1
:1012300010A0FFF7FDF89DF8031016A0FFF7F8F8CF
:101240009DF802101AA0FFF7F3F820A0FFF7F0F8BE
:1012500002B0B0BD64657669645F6164203D203092
:101260007825303278202D2D2D2D20307841440DD9
:101270000A00000064657669645F6D7374203D2028
:10128000307825303278202D2D2D20307831440DC6
:101290000A000000706172746964203D2030782576
:1012A000303278202D2D2D20307845440D0A000055
:1012B0007265766964203D20307825303278202DA3
:1012C0002D2D20307830310D0A0000004572726FEC
:1012D0007220696E697469616C697A696E670A0D5A
:1012E00000000000FEE7000070470000EFF31080F0
:1012F00072B600BFFEE7000040F2C400C2F2000078
:1013000000F03CB8002804BF0120704790F854104A
:1013100002290BD1042180F85410006842F2040223
:101320004169114341610020704700BF2021816560
:1013300001207047024600284FF0010008BF7047A7
:10134000CB065CBF00207047136840F6FF7223EAAB
:10135000020203F57B63C3F3C41301F011011129E9
:1013600000FA03F004D15168084350600020704730
:10137000516821EA000050600020704710B5044613
:1013800000680C22034600F57B6162F30B03C1F396
:10139000C4111A6822FA01F1C90700F0A38001699B
:1013A000490544BF41695FEA41514BD401690905D0
:1013B00044BF41695FEA01514CD40169C90444BF8B
:1013C00041695FEAC1414DD40169490444BF4169A3
:1013D0005FEA41414ED40169890544BF41695FEA32
:1013E00081514FD40169890444BF41695FEA814159
:1013F00052D40169C90544BF41695FEAC15173D440
:10140000A06D002808BF10BD2068416941F00201AD
:1014100041614069C0074FF0030008BF012084F814
:10142000540094F85000000602D5606F012101734A
:10143000A16E0020002984F84C0053D02046BDE85E
:10144000104008474FF48061C160A16D41F0010177
:10145000A165ABE74FF40061C160A16D41F00201ED
:10146000A165AAE74FF48051C160A16D41F004016C
:10147000A165A9E74FF48041C160A16D41F0080169
:10148000A165A8E74FF40071C160616E0029A9D081
:10149000204688472068A5E74FF40051C16094F8C2
:1014A000541004292CD1416921F400514161416952
:1014B00041F0020141614169C9074FF0030108BFD2
:1014C000012184F8541094F85010090604D5616F76
:1014D00001220A7300218164E16E0020002984F852
:1014E0004C00ABD110BD00BF94F85010090613D4C6
:1014F000816C002904BF012184F8541015E000BF5D
:10150000052184F85410216F00293FF472AF204662
:10151000884720686DE700BFC16F31B9816C21B980
:10152000012184F85410626F11734FF44071C1604F
:10153000216E0020002984F84C001CBF20468847FB
:101540005EE7000070B5044600F0EEFB002C04BF1F
:10155000012070BD00210546206884F84C1002214E
:1015600084F85410416941F0060141614169C9079D
:1015700009D000BF00F0D8FB401B052854D82068D4
:101580004169C907F6D1216A426904F1100522F4C4
:10159000430211434161E36926CD1A4340F24F0EE5
:1015A0001143C5F2020E40F24F6C704541EA05034B
:1015B000C5F2020C1CDC40F24F45C4F20205A84201
:1015C0003ADC40F24F25C4F20205A8425EDC40F24C
:1015D0004F15C4F20205A84200F39C805025C4F2C6
:1015E0000205A84200F0F080D025C4F20205E9E02F
:1015F00040F24F45C5F20205A84235DC40F24F25C6
:10160000C5F20205A84253DC40F24F15C5F20205AF
:10161000A84200F38B805025C5F20205A84200F0D5
:10162000D380D025CCE000BF012003221021A1658A
:1016300084F8542070BD00BF40F24F65C4F202052B
:10164000A84245DC40F24F55C4F20205A84277DCBF
:1016500040F25045C4F20205A84200F0B58040F2C5
:10166000D045C4F20205ADE0604543DC40F24F5581
:10167000C5F20205A8426FDC40F25045C5F20205F2
:10168000A84200F0A18040F2D04599E040F24F35E9
:10169000C4F20205A84269DC40F25025C4F20205FA
:1016A000A84200F0918040F2D025C4F2020589E002
:1016B00040F24F35C5F20205A84263DC40F25025E6
:1016C000C5F20205A84200F07F8040F2D02577E005
:1016D00040F24F75C4F20205A8425DDC40F250654D
:1016E000C4F20205A8426FD040F2D065C4F20205F0
:1016F00068E000BF40F24F75C5F20205A84257DC12
:1017000040F25065C5F20205A8425DD040F2D065B6
:1017100056E000BF40F25015C4F20205A84253D073
:1017200040F2D015C4F202054CE000BF40F2501563
:10173000C5F20205A84247D040F2D01540E000BFF4
:1017400040F25055C4F20205A8423DD040F2D055B7
:10175000C4F2020536E000BF40F25055C5F2020562
:10176000A84231D040F2D0552AE000BF40F25035B7
:10177000C4F20205A84227D040F2D035C4F20205D7
:1017800020E000BF40F25035C5F20205A8421BD050
:1017900040F2D03514E000BF40F25075C4F20205AB
:1017A000A84211D040F2D075C4F202050AE000BF91
:1017B00040F2D075C5F20205A84205D040F250753E
:1017C000C5F20205A84212D1D4E909514FF07C7646
:1017D000E26A06EB01514FF47C7606EB051501F049
:1017E0007C711A4305F47C75114341EA0503016CD1
:1017F000251D01F080211943016426CD236B01F0E2
:101800007F011143B5F5007F43EA010322D0B5F50E
:10181000806F40F00D81704520DC40F24F41C4F2F2
:101820000201884236DC40F24F21C4F202018842B4
:101830005ADC40F24F11C4F20201884200F3988052
:101840005021C4F20201884200F0F080D021C4F29D
:101850000201E5E043F40073EAE000BF40F24F41CB
:10186000C5F2020188422DDC40F24F21C5F202018F
:1018700088424BDC40F24F11C5F20201884200F36E
:1018800083805021C5F20201884200F0CF80D02130
:10189000C4E000BF40F24F61C4F20201884245DC5F
:1018A00040F24F51C4F20201884277DC40F25041CD
:1018B000C4F20201884200F0B98040F2D041C4F283
:1018C0000201ADE0604543DC40F24F51C5F2020138
:1018D00088426FDC40F25041C5F20201884200F0BC
:1018E000A58040F2D04199E040F24F31C4F20201AC
:1018F000884269DC40F25021C4F20201884200F0C3
:10190000958040F2D021C4F2020189E040F24F31CB
:10191000C5F20201884263DC40F25021C5F20201A7
:10192000884200F0838040F2D02177E040F24F718E
:10193000C4F2020188425DDC40F25061C4F202014F
:10194000884273D040F2D061C4F2020168E000BF67
:1019500040F24F71C5F20201884257DC40F25061FB
:10196000C5F20201884261D040F2D06156E000BF6A
:1019700040F25011C4F20201884257D040F2D01117
:10198000C4F202014CE000BF40F25011C5F2020166
:1019900088424BD040F2D01140E000BF40F250519D
:1019A000C4F20201884241D040F2D051C4F2020197
:1019B00036E000BF40F25051C5F20201884235D0F6
:1019C00040F2D0512AE000BF40F25031C4F202018F
:1019D00088422BD040F2D031C4F2020120E000BF97
:1019E00040F25031C5F2020188421FD040F2D0319E
:1019F00014E000BF40F25071C4F20201884215D0D9
:101A000040F2D071C4F202010AE000BF40F2D0718E
:101A1000C5F20201884209D040F25071C5F20201BC
:101A2000884208BF43F4806302E000BF43F4806350
:101A3000416C43F28012C3F6C04211401943416425
:101A400000216045816411DC40F24F71C4F2020153
:101A500088421BDC40F25061C4F2020188422DD062
:101A600040F2D061C4F2020126E000BF40F24F71A3
:101A7000C5F20201884215DC40F25061C5F2020154
:101A800088421BD040F2D06114E000BF40F2507198
:101A9000C4F20201884211D040F2D071C4F20201B6
:101AA0000AE000BF40F2D071C5F20201884205D0C1
:101AB00040F25071C5F20201884202D10021416515
:101AC00081650021C167606B012220650020A1654E
:101AD00084F8542070BD0000B0B5044600F024F92D
:101AE000054640F20000C2F200000078611C18BFF9
:101AF000044400BF00F018F9401BA042FAD3B0BD67
:101B00002DE9F04F81B00D68002D00F00381804673
:101B100047F67F70C0F22F0000EA9820002700905F
:101B200000234FF0010E4FF0030AC4F20267404653
:101B30000BE000BF4FF0030A0027C4F202670D68F4
:101B4000013335FA03F200F0E5800EFA03F415EAEA
:101B50000409F4D0B84525D0D1F804C04CF01004E5
:101B6000122C55D16FF0030202EA53071C2202EA3D
:101B7000830647440F223D6A02FA06F40A69A54328
:101B800002F00F02B2402A433A6202685C00D1F8C8
:101B900004C00AFA04F5AA430CF0030505FA04F49C
:101BA00022433FE0386846F638424D68C0F60002EE
:101BB000A04302EBC30405F001059D40D4F804B036
:101BC000054352F833006FF0030202EA5B041C2263
:101BD0003D60051902EA8B042F6A0F2202FA04F60F
:101BE0000B22B74302FA04F637432F6207684FEA25
:101BF0004B060AFA06F50222AF4302FA06F637430D
:101C00000760D1F804C0BCF1120F10D938E000BF52
:101C100002685C000AFA04F5AA430CF0030505FA11
:101C200004F422439B460260BCF1120F28D80EFA3E
:101C30000CF212F0061F1FD04FEA4B0503248268F6
:101C400004FA05FACC6822EA0A02AC402243826018
:101C500042680EFA0BF4A2434FEA1C1404FA0BF488
:101C60002243BCF1030F42603FF464AF6FEA0A0401
:101C70004FF0030A09E000BFBCF1030F3FF45CAF73
:101C80004FEA4B050AFA05F2D443C2688E68224037
:101C900006FA05F422435FEACC07C2607FF54CAF39
:101CA00042F2000423F00302C4F202641827224423
:101CB00007EAC307166E0F25BD40AE43009D05FA27
:101CC00007F73743176622684F6842EA0906FD02A4
:101CD00058BF22EA090626606268BD0242EA090688
:101CE00058BF22EA09066660D4F88420BD0342EAA0
:101CF000090658BF22EA0906C4F88460D4F8802097
:101D0000FF0342EA090658BF22EA0906C4F88060C8
:101D100012E700BF01B0BDE8F08F00001823002AD1
:101D200008BF2823C150704740F26020C2F2000073
:101D30000068704740F2000040F26021C2F20000EB
:101D4000C2F2000100780A68104408607047000081
:101D500080B542F20000C4F20200016841F48071D3
:101D60000160032000F094F801F01AFE40F62041D3
:101D7000C4F20261096846F6204201F00F01C0F684
:101D80000002515CC84040F20801C2F20001086044
:101D90000F2000F009F800281CBF012080BD00F0D2
:101DA0002BF8002080BD000070B540F20006C2F2A2
:101DB00000063178002904BF012070BD044640F2BE
:101DC0000800C2F200004FF47A720068B2FBF1F131
:101DD000B0FBF1F003F032FA0F2C4FF0010508D8F8
:101DE00038B94FF0FF3021460022002500F024F8DA
:101DF0007460284670BD000081B040F69440C4F283
:101E00000260016841F004010160006800F0040014
:101E10000090009801B07047002848BF704700F05C
:101E20001F01012202FA01F14EF200124009CEF226
:101E3000000242F82010704710B54EF60C5CCEF24E
:101E4000000CDCF80030C3F3022E8EF00704042CE3
:101E500028BF0424BEF103034FF0FF3E38BF002328
:101E60000EFA04F4A14399400EFA03F39A4300F0EA
:101E70000F03043B1143634409010C3300F160423A
:101E8000B0F1FF3FC8BF02F56443197010BD0000F8
:101E90004EF60C51CEF200010A684FF6FF031A40CD
:101EA00060F30A2242F0806040F0FD7008607047E5
:101EB00080B540F60C0CC4F2026CDCF8301001F472
:101EC000403181420CD1B0F1011FC0F07F80DCF8BD
:101ED000000040F48020CCF80000002080BD00BF4E
:101EE000DCF80010B0F5803F21F4E02141EA000168
:101EF00040F2080088BF41F48021CCF80010C2F203
:101F00000000006841F25971CDF2B711A0FB010148
:101F10004FEA913E734600BFDCF80010B3F1FF3288
:101F200018BF0122581C22D011F400401FD1DCF848
:101F30000010002B1A4618BF012218D011F40040DF
:101F400015D1DCF800105A1E18BF0122012B0ED04B
:101F500011F400400BD1DCF800109A1E18BF0122CA
:101F6000022B04D011F40040A3F10403D4D0A2B397
:101F7000DCF830101EF1010224D011F4004021D110
:101F8000DCF83010BEF1000F1DD011F400401AD162
:101F9000DCF83010BEF1010F1AD011F4004017D157
:101FA000DCF83010BEF1020FAEF1040203D011F4E0
:101FB00000409646DCD002F1020EBEF1000F05D1C2
:101FC0000BE000BF9646BEF1000F06D0002080BD9A
:101FD000AEF1010EBEF1000FF8D1032080BD00006C
:101FE00040F62C00C4F20260016841F0010101607A
:101FF0007047000040F63C00C4F20260006800F444
:1020000040307047B0B540F6284EC4F2026EDEF89C
:102010000C50DEF80030DEF80010DEF80020DEF8AC
:102020001040C2F30012C4F3CC04C1F3032104FB3B
:1020300002F203F0030300EE102A6FF35F25B8EEFF
:10204000400A012B01F1010C66D0032B18BF022BB3
:1020500062D101EE10CADEF80C10B8EE411A9FED05
:102060004D2A6FF35F2182EE011A02EE101A9FEDE6
:102070004A3AB8EE422A20EE030A30EE020AB7EEE0
:10208000002A30EE022ADEF8001021EE020AC9030F
:1020900071D5DEF80C10B7EE002AC1F3462101EE2F
:1020A000101AB8EE411A31EE021A80EE011ABCEE97
:1020B000C11A11EE102A0260DEF80010890360D503
:1020C000DEF80C10B7EE002AC1F3064101EE101A3B
:1020D000B8EE411A31EE021A80EE011ABCEEC11AB6
:1020E00011EE102A4260DEF8001049034FD5DEF8E9
:1020F0000C10B7EE002AC1F3066101EE101AB8EE1B
:10210000411A31EE021A80EE010ABCEEC00A10EE4E
:10211000101A8160B0BD00BF5EF8201C090203D414
:10212000DEF8CC100B0401E05EF8203C46F6B84225
:10213000190FC0F6000202EB810102EE10CA91ED08
:10214000001AB8EE422AB8EE411A9FED133A81EE1A
:10215000022A01EE105A20EE030AB8EE411A30EEC0
:10216000010AB7EE001A30EE011ADEF8001021EE77
:10217000020AC9038DD400220260DEF80010890330
:102180009ED400224260DEF800104903AFD4002143
:102190008160B0BD0024744B00000039B0B540F63A
:1021A0002C4EC4F2026EDEF81050DEF80030DEF87D
:1021B0000010DEF80020DEF81440C2F30012C4F371
:1021C000CC04C1F3032104FB02F203F0030300EE8D
:1021D000102A6FF35F25B8EE400A012B01F1010CC4
:1021E00066D0032B18BF022B62D101EE10CADEF8B5
:1021F0001010B8EE411A9FED4D2A6FF35F2182EE69
:10220000011A02EE101A9FED4A3AB8EE422A20EE69
:10221000030A30EE020AB7EE002A30EE022ADEF898
:10222000001021EE020AC90371D5DEF81010B7EED6
:10223000002AC1F3462101EE101AB8EE411A31EE20
:10224000021A80EE011ABCEEC11A11EE102A0260C9
:10225000DEF80010890360D5DEF81010B7EE002A12
:10226000C1F3064101EE101AB8EE411A31EE021A1E
:1022700080EE011ABCEEC11A11EE102A4260DEF89F
:10228000001049034FD5DEF81010B7EE002AC1F355
:10229000066101EE101AB8EE411A31EE021A80EE14
:1022A000010ABCEEC00A10EE101A8160B0BD00BF7A
:1022B0005EF8241C090203D4DEF8C8100B0401E008
:1022C0005EF8243C46F6B842190FC0F6000202EB55
:1022D000810102EE10CA91ED001AB8EE422AB8EE62
:1022E000411A9FED133A81EE022A01EE105A20EEB8
:1022F000030AB8EE411A30EE010AB7EE001A30EECA
:10230000011ADEF8001021EE020AC9038DD4002262
:102310000260DEF8001089039ED400224260DEF8DD
:1023200000104903AFD400218160B0BD0024744B7C
:1023300000000039B0B540F6304EC4F2026EDEF84F
:102340001450DEF80030DEF80010DEF80020DEF871
:102350001840C2F30012C4F3CC04C1F3032104FB00
:1023600002F203F0030300EE102A6FF35F25B8EECC
:10237000400A012B01F1010C66D0032B18BF022B80
:1023800062D101EE10CADEF81410B8EE411A9FEDCA
:102390004D2A6FF35F2182EE011A02EE101A9FEDB3
:1023A0004A3AB8EE422A20EE030A30EE020AB7EEAD
:1023B000002A30EE022ADEF8001021EE020AC903DC
:1023C00071D5DEF81410B7EE002AC1F3462101EEF4
:1023D000101AB8EE411A31EE021A80EE011ABCEE64
:1023E000C11A11EE102A0260DEF80010890360D5D0
:1023F000DEF81410B7EE002AC1F3064101EE101A00
:10240000B8EE411A31EE021A80EE011ABCEEC11A82
:1024100011EE102A4260DEF8001049034FD5DEF8B5
:102420001410B7EE002AC1F3066101EE101AB8EEDF
:10243000411A31EE021A80EE010ABCEEC00A10EE1B
:10244000101A8160B0BD00BF5EF8281C090203D4D9
:10245000DEF8C4100B0401E05EF8283C46F6B842F2
:10246000190FC0F6000202EB810102EE10CA91EDD5
:10247000001AB8EE422AB8EE411A9FED133A81EEE7
:10248000022A01EE105A20EE030AB8EE411A30EE8D
:10249000010AB7EE001A30EE011ADEF8001021EE44
:1024A000020AC9038DD400220260DEF800108903FD
:1024B0009ED400224260DEF800104903AFD4002110
:1024C0008160B0BD0024744B0000003980B584B039
:1024D000024643F6FF7300209B1A70EB01034FDAAC
:1024E0004FF6FF73C0F21F039B1A70EB010380F2DB
:1024F000B5806FF07E439B1A4FF0000C7CEB01031C
:10250000C0F222814FF6FF73C0F27F039B1A7CEB6F
:102510000103C0F2A98182F400130B4300F0EC82A6
:1025200082F48002114340F0B48440F60041C4F2CA
:102530000261D1F8E00000F44040B0F5804F00F0B7
:10254000B383002800F08C830A68B0F5004F03D1F4
:1025500012F4806240F061840A68B0F5404F4FF099
:10256000000040F0968412F0200200F09284886807
:10257000000200F1DD84D1F8F400000400F0E3BCB7
:10258000D2F17F0370EB0103C0F2AE80013A61F13A
:102590000001D2F13F034FF0000373EB0101C0F0E3
:1025A0007884DFE812F04100E5017604FF0176044B
:1025B00076047604190276047604760476047604AA
:1025C0007604760433027604760476047604760480
:1025D000760476047604760476047604760476042B
:1025E000760476044F027604760476047604760444
:1025F000760476047604760476047604760476040B
:1026000076047604760476047604760476047604FA
:1026100076047604760476047604760476047604EA
:10262000760476047F0200BF40F60040C4F20260E8
:10263000D0F8E01001F00301012900F035830029F2
:1026400000F02E830268022903D112F4806240F068
:10265000E483D0F8F000032900F036BC4FF6FF7396
:10266000C0F201039B1A4FF0000C7CEB010380F2D7
:1026700099804FF6FF73C0F207039B1A7CEB0103AE
:10268000C0F2168182F400330B4300F0538282F4CF
:102690008022114340F0FD8340F60040C4F2026006
:1026A000D0F8F010D0F8F02001F44071B1F5807F3F
:1026B00003D112F0020240F05781D0F8F020B1F5BA
:1026C000007F03D112F0006240F06282006810F4D3
:1026D00000301CBF4AF22010C0F20700B1F5407F65
:1026E00018BF002004B080BD40F2FF339B1A4FF0AA
:1026F000000C7CEB010380F2878040F6FF739B1A8D
:102700007CEB0103C0F2F88082F480630B4300F09D
:102710002B8282F40062114340F0BB8340F60040FC
:10272000C4F20260D0F8E81011F4407100F0348374
:10273000D0F8F020B1F5807F40F0778112F0006290
:1027400040F0268271E100BF6FF078439B1A7CEB6A
:102750000103C0F2EF8082F000730B4300F022828D
:1027600082F08062114340F0948340F60040C4F24E
:102770000260D0F8E410C1F30151DFE811F09502D6
:102780000500DD02E50200BF0168890640F1A7836C
:102790008168090200F1B683D0F8F400000400F06B
:1027A000D2BB00BF82F480430B4300F0138282F45B
:1027B00000430B4300F02E8282F48032114340F03C
:1027C000688340F60041C4F20261D1F8E40000F0F1
:1027D0000702042A00F283834BF68030DFE812F010
:1027E0002E021402BE015903060000BF08688006CD
:1027F00040F175838868000200F19C83D1F8F400F1
:10280000000400F0A0BB00BF82F080030B4300F087
:10281000198282F480730B4300F0268282F40072E6
:10282000114340F0368340F60040C4F20260D0F815
:10283000E81011F4406100F0BB82D0F8F020B1F54F
:10284000806F03D112F0006240F0A2810268B1F5FE
:10285000006F03D112F4806240F0DF82D0F8F00004
:10286000B1F5406F30E300BF82F400030B4300F08A
:102870000B8282F08072114340F00B8340F60040DF
:10288000C4F20260D0F8E010C1F30141DFE811F0BA
:10289000E8010C025A0204000168890640F11F8316
:1028A0008168090200F13083D0F8F40000044AE3A3
:1028B00082F400230B4300F0FB8182F48012114369
:1028C00040F0E78240F60040C4F20260D0F8E01029
:1028D000C1F38161DFE811F0240138023002040005
:1028E0000168890640F1FB82816809025ABFD0F86D
:1028F000F4000004806826E382F480530B4300F068
:10290000EB8182F40052114340F0C38240F6004153
:10291000C4F20261D1F8E400C0F34212042A00F2CA
:10292000DE824BF68030DFE812F0310269016F0180
:10293000B4024F0282F000630B4300F0E98182F0A1
:102940008052114340F0A58240F60041C4F202617A
:10295000D1F8E800D1F8F02010F4004040F0FA81FE
:1029600012F0020200F0F6814FF4004004B080BD86
:1029700040F60040C4F20260D0F8E01001F00C0113
:10298000042900F09181002900F06A810268082979
:1029900003D112F4806240F04082D0F8F0000C299C
:1029A00092E200BF40F60040C4F20260D0F8E010AE
:1029B00001F03001102900F07781002900F05081EA
:1029C0000268202903D112F4806240F02682D0F8F8
:1029D000F000302978E200BF40F60040C4F2026007
:1029E000D0F8E01001F0C001402900F05D8100291D
:1029F00000F036810268802903D112F4806240F031
:102A00000C82D0F8F000C0295EE200BF40F6004022
:102A1000C4F20260D0F8E01001F44071B1F5807F9B
:102A200000F04281002900F01B810268B1F5007FAF
:102A300003D112F4806240F0F081D0F8F000B1F5DB
:102A4000407F41E240F60041C4F20261D1F8E80063
:102A500000F00700012800F02781002800F0108115
:102A60000A68022803D112F4806240F0D681D1F8BE
:102A7000F020032803D112F002027FF475AF0A6838
:102A800004284FF0000040F0048212F0200200F011
:102A900000828868000200F15582D1F8F400000439
:102AA00051E200BF40F60041C4F20261D1F8E000FB
:102AB00000F44060B0F5806F00F0F680002800F070
:102AC000CF800A68B0F5006F03D112F4806240F045
:102AD000A4810A68B0F5406F4FF0000040F0D98142
:102AE00012F0200200F0D5818868000200F11E82F9
:102AF000D1F8F400000426E240F60040C4F202607F
:102B0000D0F8E410490400F17F80D0F8E010C1F360
:102B10008161DFE811F0050019011101E10100BF39
:102B2000006846F600418004C0F2DC2101EAE07052
:102B300004B080BD40F60041C4F20261D1F8E80063
:102B4000C0F30242042A00F2CA814BF68030DFE86B
:102B500012F075005B000500A001AD0101A8FFF7B0
:102B6000E9FB029804B080BD40F60040C4F2026068
:102B7000D0F8E01011F4402100F07280D0F8F0207D
:102B8000B1F5802F40F0428112F0006200F03E81EA
:102B9000D0F8F000C0004FF0FA0058BF4FF4FA40F0
:102BA00004B080BD40F60040C4F20260D0F8E810E6
:102BB000C1F3C101DFE801F06478C602016889064B
:102BC00040F18D818168090200F1A081D0F8F40004
:102BD0000004B8E140F60041C4F20261D1F8E4001B
:102BE000C0F30222042A00F27A814BF68030DFE83B
:102BF00012F0CD0005000B005001EB0001A8FFF71B
:102C000099FB019804B080BD01A8FFF7FBF901987A
:102C100004B080BD40F60041C4F20261D1F8E80082
:102C2000C0F30232052A00F22781DFE812F0070024
:102C30003D001F0125012501350100BF00F03AFECE
:102C400004B080BD40F60041C4F20261D1F8E0005A
:102C500000F44050B0F5805F26D0002840F0BE80E0
:102C600000F03EFE04B080BD40F60040C4F20260B9
:102C7000D0F8E810C1F38111DFE801F0021664D644
:102C800000F06EFE04B080BD40F60040C4F2026069
:102C9000D0F8E010C1F30151DFE801F0020654D092
:102CA00000F03EFE04B080BD00F07AFE04B080BDAE
:102CB00040F60040C4F20260D0F8E410026811F45B
:102CC000405155D112F4005252D046F60040C0F2A5
:102CD000DC2004B080BD00BF40F60040C4F20260BA
:102CE000D0F8E410026811F4006103D112F480629C
:102CF00040F09380006810F480601CBF41F2002017
:102D0000C0F27A00002908BF084604B080BD00BFA9
:102D100040F60041C4F20261D1F8E000096810F009
:102D2000407002D111F4003177D1B0F1007F2DD085
:102D3000B0F1807F40F0D38001A8FFF763F90298DB
:102D400004B080BD006840E001A8FFF727FA0298B0
:102D500004B080BDD1F8F02000284FF0000018BF6B
:102D600012F0006200F09580D1F8F00012E700BF89
:102D70000268B1F5805F6BD112F4005268D043F263
:102D80000060C0F26E1004B080BD00BF01A8FFF764
:102D900005FA019804B080BD0168890640F19F8062
:102DA0008168090200F1AA80D0F8F4000004CAE0AA
:102DB0000168890640F193808168090200F1A080D2
:102DC000D0F8F4000004BEE0086842F2004140057B
:102DD000C0F2F40101EAE07004B080BD0A68B0F509
:102DE000005F02D112F4806217D10A68B0F5405F2B
:102DF0004FF000004DD112F020024AD08868000246
:102E000000F19A80D1F8F40000049CE00268B1F56A
:102E1000002F55D112F4806252D042F20040C0F22D
:102E2000F40004B080BD00BF0168890657D58168F1
:102E300009026DD4D0F8F400000484E0016889062A
:102E40004DD58168090265D4D0F8F40000047AE019
:102E5000006810F480601CBF42F20040C0F2F40031
:102E6000B1F5005F18BF002013E000BF01A8FFF715
:102E700095F9039804B080BD00F4E0420B6842F27B
:102E80000040B2F5405FC0F2F4002BD113F40033E0
:102E900028D004B080BD00BF086880061FD58868B0
:102EA000000241D4D1F8F40000044CE00868800628
:102EB00015D58868000241D4D1F8F400000442E03E
:102EC000D0F8F000B1F5402F00F002024FF0000002
:102ED00008BF900304B080BD016889061CD400209F
:102EE00004B080BD096811F4806118BF0146B2F5D5
:102EF000804F18BF0021084604B080BD806822E0E2
:102F0000806820E080681EE080681CE080681AE02D
:102F1000806818E0806816E08168090210D4D0F853
:102F2000F40000040FE000BF88680CE088680AE045
:102F3000886808E0886806E0886804E0886802E03D
:102F4000806800E08868C0F3036046F6B841C0F6C8
:102F5000000151F8200004B080BD00002DE9F04FC1
:102F600081B00446006840F6E04BC107C4F2026B32
:102F700020D1810728D4410730D4010738D4C106B5
:102F800040D4810648D4410650D4010658D4C10526
:102F900060D4410268D4810570D4410579D401051B
:102FA00000F1828040F628488004C4F2026800F1F3
:102FB0008A80B4E0DBF80010226D21F00301114398
:102FC000CBF800108107D6D5DBF80010626D21F038
:102FD0000C011143CBF800104107CED5DBF80010EF
:102FE000A26D21F030011143CBF800100107C6D5C6
:102FF000DBF80010E26D21F0C0011143CBF80010A6
:10300000C106BED5DBF80010226E21F440711143D9
:10301000CBF800108106B6D5DBF80810626E21F0FF
:1030200007011143CBF808104106AED5DBF80010BC
:10303000A26E21F440611143CBF800100106A6D521
:10304000DBF80010E26E21F440511143CBF8001080
:10305000C1059ED5DBF80810226F21F0C001114395
:10306000CBF80810410296D5DBF80010626F21F40E
:1030700040411143CBF8001081058ED5DBF80810D4
:10308000A26F21F440611143CBF8081041057FF590
:1030900086AFDBF80010E26F21F440211143CBF83A
:1030A000001001057FF57EAFDBF80810D4F8802012
:1030B00021F440711143CBF8081040F628488004F1
:1030C000C4F202682BD5D4F890004FEA701104299D
:1030D0000CD8DFE801F0030D171D1D0004F10800F6
:1030E00002F05EFB0646D8B908E000BF012617E0F3
:1030F00004F12C0002F0D0FB064688B9D4F8900009
:1031000006E000BFD8F8001041F48031C8F8001084
:10311000DBF8041021F0E0010843CBF8040000269E
:103120006078400602D4374638E000BFD4F89400F7
:103130004FEA302004280BD83746DFE800F0030FB1
:103140001B14140004F1080002F02AFB0AE000BF7F
:10315000012701256078000624D449E004F12C0001
:1031600002F09AFB07463D4677B16078000619D415
:103170003EE000BFD8F80000374640F48030C8F881
:103180000000002F3D46F0D1DBF80400D4F8941085
:1031900020F4E06008430027CBF80400354660784F
:1031A000000625D5D4F8A8004FEA3030052807D806
:1031B00002280BD03E468FB1A078C0071CD139E061
:1031C00001270126A078C00716D133E004F10800DA
:1031D00002F0E6FA0746002F3E46EDD1DBF8080084
:1031E000D4F8A81020F4E04008430027CBF80800EA
:1031F0002E46A078C0071DD0D4F88800042800F21D
:10320000A981DFE810F00B000500AB010B000B00FB
:10321000D8F8000040F48030C8F800003D4657B9A7
:10322000DBF80400D4F8881020F0070008430027DA
:10323000CBF804003546A07880071FD5D4F88C0061
:103240004FEA3040042800F29381DFE810F00B00D1
:10325000050095010B000B00D8F8000040F4803009
:10326000C8F80000B94657B9DBF80800D4F88C104C
:1032700020F4E02008430027CBF80800A946A078F6
:10328000400701D44D465DE05BF84C0C10F0040A99
:103290000BD15BF84C0C40F004004BF84C0C5BF885
:1032A0004C0C00F00400009000984FF60045CFF65B
:1032B000FF7558F8050040F0010048F80500FEF7DA
:1032C00033FD064658F80500C00707D1FEF72CFD70
:1032D000801B0228F6D9032703252AE03D4647BB79
:1032E000DBF8100010F4407018D0D4F8C0108842F9
:1032F00011D0DBF81000DBF8101020F4407041F41E
:103300008031CBF81010DBF8101021F48031CBF8AD
:103310001010CBF81000C00740F03881DBF8100027
:10332000D4F8C01020F44070084300274D46CBF875
:103330001000BAF1000F05D15BF84C0C20F004002E
:103340004BF84C0CA078C0061BD5D4F8A0004FEA6F
:10335000B060032800F2E880DFE800F00702EA0727
:1033600004F1080002F01CFA0746394657B9DBF8A9
:103370000000D4F8A01020F0406008430027CBF8EC
:10338000000029462068020320D5D4F8982032B1E5
:10339000B2F5005F18BFB2F5805F40F0D5803E46C1
:1033A00067B1C10415D481021ED4010230D4C10119
:1033B00039D4810142D440014BD471E0DBF80430B0
:1033C000002723F440531A43CBF804200E46C104CF
:1033D000E9D5DBF80410D4F89C2021F400611143F6
:1033E000CBF804108102E0D5D4F8A410B1F5804FD9
:1033F00005D1D8F8002042F48032C8F80020DBF86C
:10340000042022F480421143CBF804100102CED5EF
:10341000DBF80010D4F8B42021F440111143CBF8AC
:103420000010C101C5D5DBF80010D4F8B82021F494
:1034300040311143CBF800108101BCD5DBF80810F6
:10344000D4F8BC2021F018011143CBF8081040013A
:1034500026D5D4F8B000B0F5401F0FD0B0F5001F4E
:1034600005D1D8F8000040F40030C8F800003D460F
:1034700067B1E078000717D43EE000BF04F1080010
:1034800002F08EF90746002F3D46F2D1DBF804002A
:10349000D4F8B01020F4401008430027CBF8040003
:1034A0003546E078000727D5D4F8840058B1B0F14C
:1034B000007F11D0B0F1807F30D1D8F8000040F407
:1034C0000030C8F8000077B1E078C00618D438465C
:1034D00001B0BDE8F08F00BF04F1080002F060F910
:1034E0000746002FF0D1DBF80000D4F8841020F05C
:1034F00040700843CBF800002F46E078C006E6D5C0
:10350000DBF80800D4F8AC1020F400400843CBF8F6
:103510000800384601B0BDE8F08F00BF0127E07811
:10352000C006D4D5ECE700BF012701212AE700BF80
:10353000D8F8000040F40030C8F80000002F3946E9
:103540007FF420AF13E700BF01270126C1047FF5F8
:103550002AAF3EE7012701256DE600BF04F12C00EC
:1035600002F09AF90746002F3D467FF464AE57E615
:1035700001274FF0010982E604F12C0002F08CF9DA
:103580000746002FB9467FF47AAE6DE6FEF7CCFB16
:1035900006460327032500BFDBF8100080073FF530
:1035A000BDAEFEF7C1FB801B41F288318842F3D9E2
:1035B000BFE600002DE9F04F81B0002800F01C812B
:1035C00042F20008C4F202080446D8F800000D4692
:1035D00000F00F0088420DD2D8F8000020F00F0054
:1035E0002843C8F80000D8F8000000F00F00A842F7
:1035F00040F00281206840F62049C106C4F2026909
:103600000DD56169D9F8042002F07002914206D903
:10361000D9F8042022F070021143C9F80410010700
:103620000FD52169D9F80020702303EA12129142C4
:1036300007D9D9F8002022F4E06242EA0111C9F862
:10364000001041070DD5E168D9F8002002F07002A2
:10365000914206D9D9F8002022F070021143C9F82E
:10366000001081070DD5A168D9F8002002F00F02E3
:10367000914206D9D9F8002022F00F021143C9F86F
:103680000010C00774D1206881070DD5A168D9F852
:10369000002002F00F02914206D2D9F8002022F059
:1036A0000F021143C9F80010D8F8001001F00F0103
:1036B000A9420DD9D8F8001021F00F012943C8F80C
:1036C0000010D8F8001001F00F01A94240F09480DA
:1036D00041070DD5E168D9F8002002F0700291424F
:1036E00006D2D9F8002022F070021143C9F8001068
:1036F00001070FD52169D9F80020702303EA1212BF
:10370000914207D2D9F8002022F4E06242EA011186
:10371000C9F80010C0060DD56069D9F8041001F091
:103720007001884206D2D9F8041021F070010843D4
:10373000C9F8040000F034F9D9F8001046F6204228
:1037400001F00F01C0F60002525C40F20401C2F227
:103750000001096840F2080320FA02F2C2F20003F5
:1037600008461A6001B0BDE8F04FFEF71DBB00BF70
:10377000606840F61C47C4F2026768B3022831D083
:10378000032835D1D9F8740010F0040A0BD1D9F808
:10379000740040F00400C9F87400D9F8740000F017
:1037A000040000900098FEF7BFFA4FF6F03BCFF60A
:1037B000FF7B57F80B10490322D4BAF1000F05D153
:1037C000D9F8740020F00400C9F8740057F81C0CF4
:1037D000800111D5606822E057F81C0C40070BD51A
:1037E00000201CE057F81C0C800317D4012042E095
:1037F00057F81C1C490512D4012001B0BDE8F08F18
:10380000064600BF57F80B004004D6D4FEF78CFAEA
:10381000801B02284FF00300F4D92CE00220396805
:1038200021F0030108433860FEF77EFA616806461E
:10383000032941F2883A28D0022934D071B900BF57
:10384000386810F00C0F3FF41EAFFEF76DFA801BC6
:1038500050454FF00300F3D90DE000BF386800F089
:103860000C0004283FF40FAFFEF75EFA801B5045B2
:103870004FF00300F2D901B0BDE8F08FFEF754FA23
:10388000801B50454FF00300F5D8386800F00C005D
:103890000C28F3D1F7E600BFFEF746FA801B50452F
:1038A0004FF00300E7D8386800F00C000828F3D187
:1038B000E9E6000080B500F073F840F62041C4F25C
:1038C0000261096846F6204201F00F01C0F60002CD
:1038D000515CC84040F20801C2F20001086080BD9E
:1038E00080B500F05DF840F62041C4F202610A683C
:1038F00046F6204302F00F02C0F600039A5CD04067
:1039000040F20802C2F200021060096846F6304236
:10391000C1F30211C0F60002515CC84080BD000036
:1039200080B500F03DF840F62041C4F202610A681B
:1039300046F6204302F00F02C0F600039A5CD04026
:1039400040F20802C2F200021060096846F63042F6
:10395000C1F30221C0F60002515CC84080BD0000E6
:1039600080B500F01DF840F62041C4F202610A68FB
:1039700046F6204302F00F02C0F600039A5CD040E6
:1039800040F20802C2F200021060496846F6304276
:10399000C1F30211C0F60002515CC84080BD0000B6
:1039A00080B540F62841C4F2026151F80C0C10F0C9
:1039B0000C02086816D00C2A04BF00F0030001288E
:1039C00010D051F80C0C9FED370A00F00C000428C1
:1039D00042F20040C0F2F4001ED0082A18BF0020B6
:1039E0001AE000BF51F8200C000205D4D1F8CC0039
:1039F000C0F3033003E000BF51F8200C000F46F67F
:103A0000B843C0F6000353F82000002A00EE100A65
:103A100018BF0020B8EE400A0C2A18BF80BDD1F8AC
:103A200000C00A689FED201AC2F303220B6802F15E
:103A3000010E08695FEA8C7258BFB0EE401A00EEC2
:103A400010EAC3F30013B8EE400AC0F3CC0081EED5
:103A5000000A00FB03F09FED153A01EE100AC8685A
:103A6000B8EE411A6FF35F2002EE100A21EE031A3E
:103A7000B8EE422AC86831EE021AB7EE002AC0F347
:103A8000066031EE021A013020EE010A01EE100A42
:103A9000B8EE411A80EE010ABCEEC00A10EE100A20
:103AA00080BD00BF000000000024744B00000039FE
:103AB0002DE9F04381B0002800F0468440F6944997
:103AC0000446C4F2026959F8780C59F86C1C227843
:103AD00000F00C07D00601F0030823D42078C007BB
:103AE0007AD0082F74D00C2F08BFB8F1030F6FD015
:103AF000606840F60046B0F5803FC4F2026600F010
:103B0000EB82B0F5A81F00F0DF82B0F5A02F40F0E7
:103B1000F782306840F480203060306820F48010F4
:103B2000D9E200BF17B30C2F08BFB8F1010F1DD0A9
:103B300040F60046C4F20266E1693068002900F0F0
:103B4000BB8140F001003060FEF7EEF8054600BF93
:103B50003068400700F1C281FEF7E6F8401B0228FA
:103B60004FF00300F4D901B0BDE8F083E06900280C
:103B700000F0EA8340F60045C4F20265666AA86870
:103B800000025ABFD9F860000004A86800F0704035
:103B9000864240F26581002F40F03483D9F800005E
:103BA000400700F11383D9F8000040F00400C9F881
:103BB0000000D9F8000000F0040000900098FEF723
:103BC00019FAD9F8001021F00401C9F80010FFE239
:103BD0006068002800F0B883207880072FD5042F74
:103BE00020D00C2F08BFB8F1020F1BD040F60046C2
:103BF000C4F20266E1683068002900F0298240F4CE
:103C000080703060FEF790F8054600BF30684005D0
:103C10000CD4FEF789F8401B02284FF00300F5D9B9
:103C2000A1E700BFE068002800F08E8359F8840CFB
:103C3000216920F4F81040EA014049F8840C20780A
:103C400040F600470007C4F2026775D420784007A9
:103C500000F1CA802078800600F1168120780006E5
:103C600000F150812078400600F1B881A56B002D4D
:103C700000F0A78459F8780C00F00C000C2840F0F4
:103C80006F8259F86C1C59F8600C012D00F05C83B0
:103C9000E26B01F00303934240F05683226CC1F3C0
:103CA0000323013A934240F04F83626C01F4704168
:103CB000914240F04983A26C01466FF35F21013AC3
:103CC000914240F04183E16CC0F3462201398A42BF
:103CD00040F03A83216DC0F3064201398A4240F038
:103CE0003383616DC0F306600139884240F02C8354
:103CF00059F85C0CE16DC0F3CC00884200F061849F
:103D000059F86C0C20F0100049F86C0CFEF70CF818
:103D10000546FEF709F8A842FBD0E06DC00049F85F
:103D20005C0C59F86C0C40F0100049F86C0C002049
:103D300001B0BDE8F08300BFD9F8000010F004081E
:103D40000BD1D9F8000040F00400C9F80000D9F800
:103D5000000000F00400009000984FF62846CFF6CF
:103D6000FF76B859C00713D1B85940F00100B851D7
:103D7000FDF7DAFF054600BFB859C00708D1FDF7C7
:103D8000D3FF401B0228F7D9032001B0BDE8F08320
:103D90006069D9F85C10002800F0CC80A06901F0BF
:103DA0008052904200F04A8301F04062B2F1006F0D
:103DB00000F0CA82490140F13A83D9F85C0020F052
:103DC000A050C9F85C00FDF7AFFF0546D9F85C00CC
:103DD000000140F12B83FDF7A7FF401B05284FF0A2
:103DE0000300F3D9BFE600BFD9F8000010F00408C3
:103DF0000BD1D9F8000040F00400C9F80000D9F850
:103E0000000000F00400009000984FF62846CFF61E
:103E1000FF76B859C00713D1B85940F00100B85126
:103E2000FDF782FF054600BFB859C00708D1FDF76E
:103E30007BFF401B02284FF00300F5D993E600BF3B
:103E4000A568E80740F08C80D9F85C0020F00100FC
:103E5000C9F85C00D9F85C0020F004008CE000BFD9
:103E6000A868B6F1404F40F40000A860A86820F0B0
:103E7000704040EA0600A860C0F0CA80E868216A85
:103E800020F01F0008431CE2E16A3868002900F0B6
:103E9000098140F480503860FDF746FF054600BFB9
:103EA000386880043FF5DAAEFDF73EFF401B02287C
:103EB0004FF00300F4D956E620F001003060FDF722
:103EC00033FF0546306840077FF508AEFDF72CFF4D
:103ED000401B02284FF00300F4D944E6B06840F4D8
:103EE0000000B060B168606A21F070410143B0F138
:103EF000404FB160C0F09C80F068216A20F01F0044
:103F000008435EE2216B3868002900F0178140F415
:103F100080403860FDF708FF054600BF38680004A0
:103F20003FF5A0AEFDF700FF401B02284FF0030055
:103F3000F4D918E621F0A050C9F85C00FDF7F4FEB2
:103F4000054600BFD9F85C00000140F18F82FDF703
:103F5000EBFE401B05284FF00300F3D903E600BF3A
:103F6000D9F85C00690705D540F00400C9F85C0089
:103F7000D9F85C0040F00100C9F85C00FDF7D4FE00
:103F8000002D054641F2883614D000BFD9F85C00F8
:103F900080076FD4FDF7C8FE401BB0424FF003000E
:103FA000F4D9E0E5FDF7C0FE401BB0424FF003003E
:103FB0003FF6D9ADD9F85C008007F3D4D9F85C009E
:103FC000000600F10182B8F1000F7FF443AED9F88A
:103FD000000020F00400C9F800003BE6606B0028F8
:103FE00000F0E080B86840F40000B860B86820F0E5
:103FF0007061D4E90902B0F1404F41EA0201B960B1
:10400000C0F04A81F868216A20F01F000843EAE204
:10401000B6F1FF3F40F31A81E868B6F1804FC0F077
:104020004B81216A20F4F84040EA812049E100BF39
:10403000B0F1FF3F40F39481F168B0F1804FC0F0E0
:10404000BB81206A21F4F84141EA8020B9E100BF38
:1040500020F480703060FDF767FE0546306840054B
:104060007FF5EDADFDF760FE401B02284FF0030029
:10407000F4D978E5A168D9F85C00090600F1F88068
:1040800020F0800041F28836C9F85C00D9F85C0065
:10409000000598D5FDF748FE401BB0424FF00300E5
:1040A000F4D960E520F480503860FDF73DFE054608
:1040B000386880047FF5D2ADFDF736FE401B02283C
:1040C0004FF00300F4D94EE5306840F480203060B2
:1040D000306840F480103060306840F480303060E8
:1040E000FDF722FE054600BF306880033FF574AD42
:1040F000FDF71AFE401B64284FF00300F4D932E5A7
:104100003168002821F480313160316821F4802148
:104110003160316821F480113160E1D1FDF704FE96
:104120000546306880037FF557ADFDF7FDFD401B68
:1041300064284FF00300F4D915E500BF20F4804057
:104140003860FDF7F1FD0546386800047FF58AAD5B
:10415000FDF7EAFD401B02284FF00300F4D902E509
:10416000386820F080703860FDF7DEFD022D0546CE
:104170000CD13868800140F18581FDF7D5FD401BE9
:1041800002284FF00300F4D9EDE400BF3868800145
:1041900040F10E82FDF7C8FD401B02284FF00300DE
:1041A000F4D9E0E4386820F010003860FDF7BCFD79
:1041B0000546386880067FF559ADFDF7B5FD401B13
:1041C00002284FF00300F4D9CDE400BFFDF712FF41
:1041D00020F48031B1F5003F40D10021B6F1805F7D
:1041E00038BF012142F20000C4F20200026822F04E
:1041F0000F020A440260006800F00F00884240F09D
:10420000A380666AA868B6F1404F40F40000A86039
:10421000A86820F0704040EA0600A86006D3E8686D
:10422000216A20F01F000843A7E000BFB6F1FF3F5E
:1042300040F38E80E868B6F1804FC0F09980216A23
:1042400020F4F84040EA812097E000BFE868216A46
:1042500020F4787040EA411033E000BF0021B1EB58
:10426000167F40F0C780B0F5803F6DD10321B9E7DC
:1042700040F0800041F28836C9F85C00D9F85C0053
:1042800000053FF5A0AEFDF74FFD401BB0424FF0DB
:104290000300F3D967E400BFB0F1FF3F40F396811C
:1042A000F968B0F1804FC0F09981206A21F4F8419B
:1042B00041EA802097E100BF216A20F4782040EA9B
:1042C000C130002FE86059D1D9F80000400715D45B
:1042D000D9F8000040F00400C9F80000D9F8000047
:1042E00000F0040000900098FDF784FED9F800105B
:1042F00021F00401C9F8001002E000BFFDF77AFECA
:1043000020F48031B1F5003F14D10021B6F1805F77
:1043100038BF012142F20000C4F20200026822F01C
:104320000F020A440260006800F00F0088420BD1BF
:1043300024E000BF0021B1EB167F69D1B0F5803FCA
:1043400002D10321E6E700BF012001B0BDE8F08300
:10435000E868216A20F4787040EA41100DE000BF5F
:10436000F068216A20F4787040EA411029E000BF2B
:10437000216A20F4782040EAC130E860FFF710FBA2
:1043800059F8741C46F6204201F00F01C0F60002F5
:10439000515C40F2080220FA01F140F20400C2F23E
:1043A00000000068C2F200021160FDF7FDFC002869
:1043B0007FF4D9ABFFF792BB206A21F4782141EA60
:1043C000C030F060FFF78ABBD9F85C0041F2883654
:1043D00020F08000C9F85C00D9F85C0000057FF58A
:1043E000F2ADFDF7A1FC401BB0424FF00300F3D942
:1043F000FFF7B9BBB6F1005F40F20C81B0FA80F074
:1044000000214009B6F1405F98BF01210140E9E673
:10441000B6F1005F40F20881B0FA80F00021400957
:10442000B6F1405F98BF0121014073E7A069D9F858
:104430005C1021F080510843C9F85C00D9F85C0099
:1044400040F08060C9F85C00FDF76EFC054600BFD7
:10445000D9F85C00000109D4FDF766FC401B052873
:104460004FF00300F4D9FFF77EBB00BFB8F1000F97
:104470007FF4ECABD9F8000020F00400C9F800008C
:10448000FFF7E4BBD9F8000010F0040C0BD1D9F809
:10449000001041F00401C9F80010D9F8001001F033
:1044A0000401009100994FF60C48CFF6FF7857F8B9
:1044B00008E057F808304FF6037623F4802347F8D6
:1044C000083059F86C3CD4E91102B343D4E90F65C4
:1044D0006FF0FF013343184301EB05214FF47E4396
:1044E000084349F86C0C59F8600C0021C8F28001AF
:1044F0000840511EE26C4FF4FE0503EB4222236D8F
:104500006FF35F2105EB0343656D92B24FF0FE46FA
:1045100006EB0565084403F4FE03104405F0FE4570
:104520001844284449F8600C59F86C0C20F010002D
:1045300049F86C0CE06DC00049F85C0C59F86C0C43
:1045400040F0100049F86C0C59F86C0CA16D20F08B
:104550000C0008435FEA4E3149F86C0C05D557F85A
:10456000080040F4802047F80800BCF1000F05D196
:10457000D9F8000020F00400C9F8000059F86C0CCC
:1045800040F4802049F86C0C386840F08070386046
:10459000FDF7CAFB04463868800112D4FDF7C4FB5E
:1045A000001B02284FF00300F5D9FFF7DCBA00BF6B
:1045B00059F86C0C4FF6FC71CFF6F871084049F8C9
:1045C0006C0C002001B0BDE8F08300BFF868216AE0
:1045D00020F4787040EA411005E000BF206A21F421
:1045E000782141EAC030F860386840F01000386047
:1045F000FDF79AFB054600BF386880063FF536ABED
:10460000FDF792FB401B02284FF00300F4D9FFF79F
:10461000AABA00BF0221B0F5803F08BF0121B6F160
:10462000805F18BF0121DDE50221B0F5803F08BFA2
:104630000121B6F1805F18BF01216BE690F8892057
:10464000012A1CBF0120704790F88820012A4FF0F2
:10465000020215D080F889200268136823F0010354
:104660001360D1E900C3896803F4702343EA0C03A3
:104670001943D1610121002280F8891080F8882037
:1046800010467047704700002DE9F04381B006687E
:10469000044630697169D6F8089094F88980020759
:1046A0000CD511F4006209D0B06940F400612046D5
:1046B000B16101B0BDE8F04300F0D0BB01EA0005F4
:1046C00005F06407042F05D1E16F20468847A16FEC
:1046D0002046884705F04500012807D1A16F2046F4
:1046E000884705F02600022804D00BE005F02600DC
:1046F000022805D1E16F204601B0BDE8F04308472C
:10470000042F03D101B0BDE8F08300BF280715D402
:1047100015F4587FF6D015F0400065D1A80570D487
:10472000E80505F020007CD4002840F08880D4F80B
:104730008C00002840F09380E4E700BF2068816986
:1047400041F008018161816941F010018161816955
:1047500041F400618161016921F008010161806813
:1047600010F4404F15D0204601F018F9012084F8CC
:104770008900D4F88C0028B32046ADE02068E16EB3
:10478000006B41F8040BE166B4F872000138A4F83C
:104790007200B4F872000028E5D0E0681028EDD26D
:1047A000082805D3308EE16E21F8020BEBE700BF3D
:1047B000206890F83000E16E0870E06E0130E0662D
:1047C000E2E700BFB8F1030F00F08C80B8F1040FEE
:1047D00000F08E80B8F1050F94D1204601B0BDE8FD
:1047E000F04300F029BD00BF2068D4F88C1041F0E0
:1047F0000401C4F88C10816941F040018161A80571
:104800008ED52068D4F88C1041F00101C4F88C10CA
:10481000816941F400718161E80505F020007FF5B0
:1048200083AF2168D4F88C2042F00802C4F88C20B1
:104830008A6942F480728A6100283FF478AF206868
:10484000D4F88C1041F08001C4F88C10816941F0DB
:1048500020018161D4F88C0000283FF453AF206818
:1048600040F26B32016821F001010160016991435E
:1048700009F44042B2F5404F016129D1816845F603
:10488000692521F440418160D4F88400C0F6000518
:1048900048B1C566FCF736FD28B1D4F88C0040F06D
:1048A0004000C4F88C00D4F8800000283FF42AAF00
:1048B000C566FCF727FD00283FF424AFD4F88C0030
:1048C00040F04000C4F88C0001B0BDE8F08300BFA8
:1048D0000121204684F8891001B0BDE8F043FFF7BC
:1048E000D1BE00BF204601B0BDE8F04300F0A2BC3D
:1048F000204601B0BDE8F04300F0AEBAF0B581B09B
:10490000002861D00446006842F2000240F0805363
:10491000C5F2006200219342A16203D1E1680F2930
:1049200052D800E0E168E36B012505EB5313083131
:10493000C90803FB01F143F2FF73C5F2000398427B
:1049400010DC43F60002C4F2000290423AD043F277
:104950000002C4F20102904234D042F20002C4F2DA
:1049600000620BE043F60003C5F20003984229D031
:1049700043F20003C5F20103984223D0904201D1D3
:10498000082921D894F8891031B9002084F88800CA
:10499000204600F071F82068022184F8891001682F
:1049A00021F0010101608368A7696268B7F1806F37
:1049B00003F4F81C14D15AB1B2F5800F10D1A36BD7
:1049C000A3B909E01029DDD9012001B0F0BD00BF75
:1049D000A36BB3F1805F05D1036843F48053036098
:1049E000530203D4E3684FF0010E0DE0E368072B98
:1049F00008D3D0F800E0266D2EF4807535434FF0D3
:104A0000000E04E04FF0000E056825F48075056087
:104A1000E569A66A45EA0C05E16B2E43314319436B
:104A2000A568266963698160616B3A43676A1143CF
:104A3000A26B394311433143226A1943E36C11439A
:104A40001943A26C2943A36D1143E26D1943236EF0
:104A500011431943BEF1000FC16005D1C168626DF9
:104A600021F000411143C16000200121C4F88C00F5
:104A700084F8891001B0F0BD70B5BAB0044602A840
:104A800000250830C0213995CDE93755CDE9355598
:104A9000FBF7E0FD206843F20001C4F20101884207
:104AA00002D03AB070BD00BF4FF4000002904FF446
:104AB00080102F9002A80395FEF750FA002818BF27
:104AC000FCF714FC40F68C40C4F2026081690026B9
:104AD00041F480518161816901F480510191019912
:104AE000016841F002010160006835A900F0020090
:104AF0000190019838203590022036900520399099
:104B000040F20040C4F20220CDE93766FCF7F8FF1E
:104B100040F2C4055020C2F20005C4F20200062192
:104B200085E843000120C5E90860C5E90A06284672
:104B3000C5E90366C5E90566EE61C5E90C66FCF7E3
:104B400001FD002818BFFCF7D1FB28461021C4F84E
:104B50008450EC65FCF7EEFB002818BFFCF7C6FBA1
:104B60003B2005210022FDF767F93B20FDF754F9B2
:104B70003AB070BD2DE9F04381B0044690F888004A
:104B800001281CD0D4F8009001201D4617460E467F
:104B900084F88800FDF7C8F894F8891001290BD132
:104BA000002E18BF002F0FD1002084F888000120AC
:104BB00001B0BDE8F08300BF002084F88800022027
:104BC00001B0BDE8F08300BF80460420002184F8D6
:104BD0008900C4F88C10E666A4F87070A4F87270AE
:104BE0006166A4F86810A4F86A10A068A167B0F51F
:104BF000C02F2068E16705D1016821F400610160E0
:104C000005E000BFC168022262F35241C160416801
:104C10004FF6FF72914339444160016841F0010150
:104C20000160C169890207D46168B1F5800F03D1C1
:104C3000016841F400710160E168102910D343F26A
:104C4000FF71C5F20001884250DC43F60001C4F256
:104C50000001884256D043F20001C4F201014FE046
:104C6000072977D8B4F87210002900F0E380691C96
:104C700026D04169C90707D1FDF756F8A0EB080017
:104C8000A8420DD3A4E000BF90F83000E16E087098
:104C9000E06E0130E066B4F872000138A4F87200EA
:104CA000B4F87200002800F0C58020684169C90787
:104CB000E2D0E9E7FDF738F8B4F87200A0B9B9E03E
:104CC0004169C907F6D090F83000E16E0870E06ED7
:104CD0000130E066B4F872000138A4F87200B4F84C
:104CE0007200002800F0A6802068E9E743F2000186
:104CF000C5F20101884205D043F60001C5F200016A
:104D0000884227D1B4F87210002900F09380691C02
:104D100072D048F20806416931420BD0006BE16E57
:104D200041F8040BE166B4F872000138A4F872008F
:104D300006E000BFFCF7F8FFA0EB0800A84247D24E
:104D4000B4F87200002875D0206841693142E5D17D
:104D5000F0E700BFB4F8721000296BD0691C23D0B3
:104D60004069C00706D1FCF7DFFFA0EB0800A842AE
:104D70000BD32DE0B9F83000E16E21F8020BE166AB
:104D8000B4F872000138A4F87200B4F87200002878
:104D900050D020684069C007E5D0EBE7FCF7C4FFBE
:104DA000B4F8720088B945E04069C007F6D0B9F898
:104DB0003000E16E21F8020BE166B4F872000138B0
:104DC000A4F87200B4F87200A0B32068ECE700BF4A
:104DD000204600F0E3FD002084F88800D4F88C0021
:104DE00040F48070C4F88C00012084F8890003200E
:104DF00001B0BDE8F08300BF48F2080541692942CF
:104E00000ED0006BE16E41F8040BE166B4F872005D
:104E10000138A4F87200B4F8720030B90AE000BF9B
:104E2000FCF782FFB4F8720020B120684169294282
:104E3000E7D1F5E7204600F0B1FD002084F88800B6
:104E4000012084F88900D4F88C00002818BF0120C4
:104E500001B0BDE8F083000070470000704700001B
:104E60002DE9F04381B0044690F8880001281CD059
:104E7000D4F8009001201D4617460E4684F888009D
:104E8000FCF752FF94F8891001290BD1002E18BFAE
:104E9000002F0FD1002084F88800012001B0BDE868
:104EA000F08300BF002084F88800022001B0BDE834
:104EB000F08300BF80460320002184F88900C4F8F5
:104EC0008C106666A4F86870A4F86A70E166A4F8AD
:104ED0007010A4F87210A068A167B0F5C02F206808
:104EE000E16705D10168024641F4006106E000BFB8
:104EF000024652F80C1F012363F3524111604168CE
:104F00004FF6FF72914339444160016841F001015D
:104F10000160C169890207D46168B1F5800F03D1CE
:104F2000016841F400710160E168102912D343F275
:104F3000FF71C5F20001884200F3948043F600013E
:104F4000C4F20001884200F0998043F20001C4F2EB
:104F5000010191E0072900F2CF80B4F86A1000291E
:104F600000F02881691C44D04FF6FE718E1E4F1C44
:104F70004169890706D4FCF7D7FEA0EB0800A842D8
:104F80002BD343E1B4F86A10042909D3E16B40291B
:104F900006D9616E51F8042B02623046616617E053
:104FA000B4F86A1002290BD3E16B49B1606E30F896
:104FB000021BA9F8201060664FF6FE7008E000BFE3
:104FC000616E097880F82010606E013060663846A6
:104FD000B4F86A100844A4F86A00B4F86A0000281B
:104FE00000F0E880206841698907CBD4C3E700BF9F
:104FF00020684169890703D4FCF796FE2CE000BFC6
:10500000B4F86A1004290BD3E16B412908D3616E0F
:1050100051F8042B02626166B4F86A00043819E0A2
:10502000B4F86A1002290BD3E16B49B1606E30F815
:10503000021BA9F820106066B4F86A00023809E083
:10504000616E097880F82010606E01306066B4F8F7
:105050006A000138A4F86A00B4F86A000028C7D1D1
:10506000A8E000BF43F20001C5F20101884205D06B
:1050700043F60001C5F2000188423DD1B4F86A1040
:10508000002900F09780691C1FD000BF4169890783
:1050900006D4FCF749FEA0EB0800A8420AD3B5E00D
:1050A000616E51F8042B02626166B4F86A0001383F
:1050B000A4F86A00B4F86A00002800F07B80206839
:1050C00041698907E5D5EBE720684169890703D481
:1050D000FCF72AFE0AE000BF616E51F8042B026261
:1050E0006166B4F86A000138A4F86A00B4F86A008E
:1050F0000028E9D15EE000BFB4F86A10002959D059
:10510000691C35D04FF6FE714E1C4169890707D4E2
:10511000FCF70AFEA0EB0800A8421BD376E000BF14
:10512000B4F86A10022909D3E16B39B1616E51F804
:10513000042B02624FF6FE70616606E0606E30F886
:10514000021BA9F8201060663046B4F86A100844C3
:10515000A4F86A00B4F86A0060B32068416989075E
:10516000DED4D5E7FCF7E0FDB4F86A0000BB21E02F
:1051700041698907F6D5B4F86A1002290AD3E16BB0
:1051800041B1616E51F8042B02626166B4F86A00A5
:10519000023808E0606E30F8021BA9F82010606643
:1051A000B4F86A000138A4F86A00B4F86A0008B1DB
:1051B0002068DDE7681C13D020684069000713D41D
:1051C000FCF7B2FDA0EB0800A842F5D3D4F88C00A0
:1051D00040F02000C4F88C0006E000BFFCF7A4FDFE
:1051E000206840690007F9D5204600F0D7FB002071
:1051F00084F88800012084F88900D4F88C00002805
:1052000018BF012001B0BDE8F08300BF204600F0C8
:10521000C5FB002084F88800D4F88C0040F480702E
:10522000C4F88C00012084F88900032001B0BDE897
:10523000F08300007047000070470000411E00200E
:10524000B0EB116F1CBF012070474EF21002CEF27E
:10525000000251604EF62351CEF20001F0230B7094
:10526000072190601160704790F88410012904BFF5
:10527000022070472421C0F8881002681168136862
:1052800023F00103136021F00053002141661360F5
:105290002022C0F8882080F884100846704700005B
:1052A000B0B590F88420012A04BF0220B0BD2422AA
:1052B000C0F888200268D0F864E0D2F800C0136813
:1052C000BEF1000F23F001031360936823F06063C5
:1052D00041EA0301916019D09368916846F6105E27
:1052E000490FC0F6000E46F618551EF80140C0F6EC
:1052F0000005C3F34263695CE400B4FBF1F11EF8FE
:105300000340EB5CE500B5FBF3F301E00121012371
:10531000A0F86A102021A0F86830C2F800C0C0F8D8
:105320008810002180F884100846B0BDB0B590F810
:105330008420012A04BF0220B0BD2422C0F88820A6
:105340000268D0F864E0D2F800C01368BEF1000F24
:1053500023F001031360936823F0604341EA0301E3
:10536000916019D09368916846F6105E490FC0F6B7
:10537000000E46F618551EF80140C0F60005C3F3AE
:105380004263695CE400B4FBF1F11EF80340EB5C9E
:10539000E500B5FBF3F301E001210123A0F86A1059
:1053A0002021A0F86830C2F800C0C0F888100021A1
:1053B00080F884100846B0BD10B5B0B10446D0F8EE
:1053C000880028B9002084F88400204600F028F8DE
:1053D0002420C4F888002068016821F001010160E0
:1053E000204600F0A3FC012802D1012010BD00BF1F
:1053F000A06A00281CBF204600F06CFB21684868AA
:1054000020F490404860886820F02A00886008688E
:1054100040F0010220460A60BDE8104000F0CEBB1B
:10542000B0B5BAB0044602A800250830C0213995AD
:10543000CDE93755CDE93555FBF70CF9206844F631
:105440000001C4F20001884202D03AB0B0BD00BFF2
:105450000420029002A803951895FDF77FFD00280F
:1054600018BFFBF743FF40F68C40C4F202600169AD
:1054700041F480210161016901F4802101910199C8
:10548000016841F001010160006835A900F00100E8
:1054900001900198A0203590022036900020CDE99F
:1054A0003700072039900020C4F20220FCF728FBC7
:1054B0003AB0B0BD2DE9F04182B00446D0F8880082
:1054C00020281EBF022002B0BDE8F0810E46002950
:1054D0004FF001001CBF1746002A03D102B0BDE8FF
:1054E000F08100BF20681D468168090603D58168E8
:1054F00021F0800181604FF000082120C4F89080E5
:10550000C4F88800FCF710FCA4F85470A4F8567096
:10551000A1680746B1F5805F0FD12069002814BF4C
:105520003046B046064608E016F8010B216888624E
:10553000B4F856000138A4F85600B4F8560088B103
:105540002046802100223B46009500F0FDFCC8B9B2
:10555000002EE9D138F8020B21686FF35F208862D2
:105560000026E5E72046402100223B46009500F05A
:10557000EBFC2021C4F88810002818BF032002B0DB
:10558000BDE8F0812020C4F88800032002B0BDE807
:10559000F0810000FEE7000080B582B040F6884050
:1055A000C4F202600168002241F00101016000685C
:1055B000052100F00100019001981D20FCF73CFC42
:1055C0001D2002B0BDE88040FCF726BC2DE9F04369
:1055D00087B04FF0000940F68C40CDF81890C4F227
:1055E00002600168002441F0040101600168C4F216
:1055F000022401F0040101910199016804F500659C
:1056000041F0800101600168002201F080010191F8
:10561000019901684FF4005641F0010101600168F1
:1056200001F0010101910199016841F0020101605D
:1056300000684FF4005100F00200019001982846E4
:10564000FCF76CFB20464FF4004100224FF4004869
:10565000FCF764FB029602AE012728463146CDE9ED
:105660000379CDF81490FCF74BFA20463146CDE98A
:105670000287CDE90499FCF743FA07B0BDE8F0834F
:1056800010B584B040F23C1043F200034FF48001A7
:10569000C2F20000C4F20103002407224FF0806C24
:1056A0004FF0405EC0E900314FF080410394CDE9F6
:1056B0000144C0E90242C0E90444C0E906CEC0E9A1
:1056C0000844C0E90A42C0E90D14C463C0E91244A9
:1056D000C0E91444C0E916440466FFF70FF9002836
:1056E00018BFFBF703FE4FF08050CDE9020440F2F3
:1056F0003C10C2F2000001A90194FEF79FFF0028B0
:1057000018BFFBF7F3FD04B010BD000080B540F2F8
:10571000CC1044F6000244F24023C2F20000002103
:10572000C4F200024FF00C0CC0F20F03C0E90023DA
:10573000C0E90211C0E9041CC0E90611C0E9081162
:105740008162FFF739FE002818BFFBF7CFFD40F25A
:10575000CC10C2F200000021FFF7E8FD002818BFBE
:10576000FBF7C4FD40F2CC10C2F200000021FFF7AD
:1057700097FD002818BFFBF7B9FD40F2CC10C2F22C
:105780000000FFF771FD002808BF80BDBDE8804024
:10579000FBF7ACBDFEE70000FEE70000704700002D
:1057A00070B540F62C46C4F2026656F82C1C04462E
:1057B00021F0806046F82C0CFCF7B6FA054600BFD5
:1057C00056F82C0C000107D5FCF7AEFA401B022856
:1057D00084BF032070BDF3E7306840F6037188434F
:1057E00094E80E106FF0FF0505EB0222084310430A
:1057F000306030690021C8F2800100EA010E591EB4
:105800004FF47E42236902EB4C224FF4FE0505EB78
:10581000034365696FF35F2192B24FF0FE4000EBE6
:105820000560714403F4FE03114400F0FE40194486
:10583000084430613068A16920F00C0008433060F2
:10584000206A31680843306030684FF6F87120F004
:10585000100030607069E269884340EAC2007061FC
:10586000306840F01000306056F82C0C40F080603A
:1058700046F82C0CFCF758FA044600BF56F82C0CDE
:10588000000144BF002070BDFCF74EFA001B032846
:1058900024BF032070BDF1E770B540F63046C4F276
:1058A000026656F8301C044621F0805046F8300C51
:1058B000FCF73AFA054600BF56F8300C800007D5D1
:1058C000FCF732FA401B022884BF032070BDF3E7C7
:1058D000306840F60371884394E80E106FF0FF05BE
:1058E00005EB022208431043306070690021C8F2C2
:1058F000800100EA010E591E4FF47E42236902EB3B
:105900004C224FF4FE0505EB034365696FF35F21FD
:1059100092B24FF0FE4000EB0560714403F4FE03C9
:10592000114400F0FE401944084470613068A169D8
:1059300020F00C0008433060206A31680843306072
:1059400030684FF6F87120F010003060B069E269FD
:10595000884340EAC200B061306840F01000306017
:1059600056F8300C40F0805046F8300CFCF7DCF96B
:10597000044600BF56F8300C800044BF002070BDC4
:10598000FCF7D2F9001B032824BF032070BDF1E708
:1059900040F23C10C2F20000FEF776BE016840F211
:1059A0006F32D1F814C08B6943F008038B618B69A7
:1059B00043F010038B610B6823F001030B600B694C
:1059C00023EA02020A618A6822F440428A6090F85F
:1059D00089305FEA8C620BD5042B09D0D0F88C207B
:1059E00042F08002C0F88C208A6942F020028A616D
:1059F00090F889305FEA4C620BD5032B09D0D0F8C0
:105A00008C2042F00402C0F88C208A6942F04002E7
:105A10008A615FEA8C5209D45FEACC5213D4002128
:105A2000A0F86A10A0F87210704700BFD0F88C2060
:105A300042F00102C0F88C208A6942F400728A6147
:105A40005FEACC52EBD5D0F88C2042F00802C0F8C7
:105A50008C208A6942F480728A610021A0F86A1061
:105A6000A0F8721070470000C06D0021A0F87210FD
:105A7000A0F86A10012180F88910FEF703BE00002B
:105A800070470000FCF756B94EF6885CCEF2000C69
:105A9000DCF80010012241F47001CCF8001040F64F
:105AA0000041C4F202610A600022CA610A624A62CD
:105AB0000B684FF6FF70CEF6F620184008608A6239
:105AC000086820F4802008604FF000600A654CF8F8
:105AD000800C704780B5816ACA070DD18A0716D439
